:020000040800F2
:10000000583E0020C9F70008B5010008D3F70008E2
:10001000B7010008BB010008BF0100080000000094
:10002000000000000000000000000000C301000804
:10003000C501000800000000DFF70008C701000844
:10004000E3F70008E3F70008E3F70008E3F7000828
:10005000E3F70008E3F70008E3F70008E3F7000818
:10006000E3F70008E3F70008E3F70008E3F7000808
:10007000E3F70008E3F70008E3F70008E3F70008F8
:10008000E3F70008E3F70008E3F70008E3F70008E8
:10009000E3F70008E3F70008E3F70008E3F70008D8
:1000A000E3F70008E3F70008E3F70008E3F70008C8
:1000B000E3F70008D9010008E1010008E3F70008B0
:1000C000E3F70008E3F70008E3F70008E3F70008A8
:1000D000E3F70008E3F70008E9010008E3F7000888
:1000E000E3F70008E3F70008E3F70008E3F7000888
:1000F000E3F70008E3F70008E3F70008E3F7000878
:10010000E3F70008E3F70008E3F70008E3F7000867
:10011000E3F70008F1010008E3F70008E3F700083F
:10012000E3F70008E3F70008E3F70008E3F7000847
:10013000E3F70008E3F70008E3F70008E3F7000837
:10014000E3F70008E3F70008E3F700089D840008E0
:10015000E3F70008E3F70008E3F70008E3F7000817
:10016000E3F70008E3F70008E3F70008E3F7000807
:10017000E3F70008E3F70008E3F70008E3F70008F7
:10018000E3F70008E3F70008DFF80CD013F042FBB8
:1001900000480047A1010008583E002000BFFEE7CC
:1001A00000F044F90249087001E000F0E8F8FCE7CB
:1001B00000000020704700BFFEE700BFFEE700BF61
:1001C000FEE77047704710B50B480068401C0A49AD
:1001D000086005F087FB10BD10B505F07AFD10BD75
:1001E00010B505F07DFE10BD10B507F026FA10BD64
:1001F00010B507F0E4FA10BD140500208148C0894D
:10020000401C8049C88108468088401C00B2888014
:100210000846C088401C00B2C88008460089401CBF
:1002200000B2088108464089401C00B24881084657
:100230008089401C00B2888108460078012804D1DA
:1002400008464078401C487002E001206D49087063
:10025000704710B5012005F084FB03F0BBFA10BD18
:1002600010B52DED028B002005F07BFBB0EE408A2F
:1002700005F008FB00EE100AB8EE400ADFED620A56
:1002800080EE201A614880ED001A06F0BBFAB0EE4D
:10029000480A06F0EDFCB0EE480A01F052F95C485D
:1002A000B0EE480A04F0DDF905F0ECFA00EE100AB1
:1002B000B8EE400ADFED540A80EE201A534880ED74
:1002C000011ABDEC028B10BD10B52DED028B022082
:1002D00005F047FBB0EE408A05F0D4FA00EE100AB4
:1002E000B8EE400ADFED480A80EE201A474880ED5C
:1002F000021A4848D0ED063AB0EE633AD0ED053A1E
:10030000F0EE632AD0ED043AB0EE632AD0ED0C3A59
:10031000F0EE631AD0ED0B3AB0EE631AD0ED0A3A64
:10032000F0EE630AF6EE003A68EE233AB0EE630AA6
:10033000394A3A493A4801F0B7FCB0EE480A00F0B1
:10034000AFFB05F09FFA00EE100AB8EE400ADFEDB1
:100350002E0A80EE201A2D4880ED031ABDEC028B88
:1003600010BD10B507F0B2F810BD10B500F05DFB80
:1003700010BD10B507F0CAF808F006FE10BD10B5A4
:100380002048007801283BD12648008800B2264941
:100390000880FFF75EFF1B48B0F90400022804DB69
:1003A000002018498880FFF75BFF1648B0F9060067
:1003B000052804DB00201349C880FFF785FF11489A
:1003C000B0F908000A2804DB00200E490881FFF775
:1003D000C8FF0C48B0F90A00142804DB00200949C2
:1003E0004881FFF7C2FF0748B0F90C00322804DB50
:1003F000002004498881FFF7BCFF002001490870F4
:1004000010BD0000840600200024744994060020DA
:100410004031002050310020240000202000002026
:100420001C000020240500200200002010B54FF41D
:10043000806008F005FE05F0F3F906F024F805F0F9
:10044000EBFA4FF4C87005F049FEC82005F03EFAFB
:10045000142006F0B9FA07F03FF84FF4E13007F046
:1004600079F804F091FB00F04BFA642005F02EFAC5
:1004700008F084FD05F0B0FA06F002FE80F00100FD
:10048000074908700748007810B907F055F804E0EC
:100490000348007808B907F050F8012010BD0000AB
:1004A000980500205005002038B50122FBA1FC482A
:1004B00011F09CFB0446C4B100221146F7A012F0D3
:1004C0008EFB044614B14FF0FF3038BD0022F3A17B
:1004D000F34811F08BFB04463CB10022EFA110461B
:1004E00011F084FB6FF00100EFE7EEA1EE4812F08F
:1004F00034F804463CB10022E8A1104611F076FB26
:100500006FF00200E1E70122E8A1EB4811F099FB4E
:1005100004463CB10022E1A1104611F067FB6FF0E8
:100520000300D2E76B464022E449E34811F03BFC6C
:100530000446009878B3E04811F094FE0122E0A14F
:10054000DD4811F07EFB04463CB10022D3A11046E9
:1005500011F04CFB6FF00300B7E76B46C022DA499D
:10056000D54811F020FC0446009848B1D24811F05B
:1005700079FE0022C9A1104611F038FB0120A4E742
:10058000CD4811F06FFE0022C4A1104611F02EFBE1
:100590006FF0030099E7FFE7C74811F063FE002200
:1005A000BEA1104611F022FB6FF004008DE738B5B4
:1005B0000022BAA1BA4811F019FB0446C4B10022C6
:1005C0001146B6A012F00BFB044614B14FF0FF30F9
:1005D00038BD0022B1A1B24811F008FB04463CB17D
:1005E0000022AEA1104611F001FB6FF00100EFE711
:1005F000ACA1AD4811F0B1FF04463CB10022A7A167
:10060000104611F0F3FA6FF00200E1E70A22A7A109
:10061000A94811F016FB04463CB100229FA11046E8
:1006200011F0E4FA6FF00300D2E76B464022A349D1
:10063000A14811F0B1FC044674BB9F4811F012FEB2
:100640000A229FA19C4811F0FCFA04463CB100220A
:1006500092A1104611F0CAFA6FF00300B8E76B469A
:10066000C0229949944811F097FC04464CB992482D
:1006700011F0F8FD002289A1104611F0B7FA01200F
:10068000A6E78D4811F0EEFD002284A1104611F07E
:10069000ADFA6FF003009BE7874811F0E3FD0022FD
:1006A0007EA1104611F0A2FA6FF0040090E710B599
:1006B0008648824BD3E900219B68C0E90E13426350
:1006C0007E4BD3E903215B69C0E9111302648048C2
:1006D0007A4B18330ECB08300EC07C4A774B24334C
:1006E0000BCB58320BC2754890ED0D0A774880ED60
:1006F000190A724890ED0E0A744880ED1A0A75487E
:10070000714C1ECC54301EC064386F49D1E9053499
:100710000A69C969C0E91A34426601676A4BD3E9BC
:1007200009141A6ADB6AC0E91F43C0E91D216A483F
:10073000654BD3E90C41D3E90E23C0E91541C0E96B
:1007400017236149D1E911430A6CC96CC0E91A4306
:10075000426601675C49D1E91434D1E91621C0E948
:100760001D34C0E91F2110BD10B500F087F904F059
:1007700083FD04F097FF10BD10B50022012147A0B2
:1007800012F02DFA9FED550A4F4880ED040A9FEDB7
:10079000530A80ED000A9FED520A80ED080A9FED92
:1007A000510A80ED060A9FED4F0A80ED020AB7EE6E
:1007B000000A80ED0A0AB0EE000A80ED050AB0EEEC
:1007C000000A80ED010AB7EE000A80ED090AB7EED3
:1007D000000A80ED070AB7EE000A80ED030AB7EEC3
:1007E000000A80ED0B0AB6EE000A80ED100AB6EEA4
:1007F000000A80ED0C0A9FED3C0A80ED140A9FED83
:100800003B0A80ED120A9FED390A80ED0E0A9FED3A
:10081000370A80ED160A9FED360A80ED110A9FED2A
:10082000340A80ED0D0A9FED2F0A80ED150A9FED29
:10083000310A80ED200A9FED2F0A80ED220A9FEDFC
:100840002D0A80ED210A9FED2B0A80ED240A9FEDF1
:10085000290A80ED260A9FED270A80ED250A9FEDE3
:10086000240A80ED180A9FED240A80ED1A0A9FEDF4
:10087000230A80ED190AB7EE080A80ED1C0AB0EED3
:10088000040A80ED1E0A9FED1B0A80ED1D0AFFF78A
:100890008EFEFFF70CFFFFF767FF10BD303A000038
:1008A000A80700202F0000000028002073656E7349
:1008B0006F722E62696E0000D8170020A806002013
:1008C0007069642E62696E00E806002050310020D5
:1008D0006C0500201C280020E0280020CDCC4C3FD7
:1008E0009A99993FCDCCCC3DCDCC4C3ECDCC4C3D16
:1008F0009A99993E000000003333B33F8FC2F53D13
:1009000010B5FFF7D1FD0446002C04DAFFF734FFE1
:10091000012051490870FFF7CAFEFFF725FF10BDFF
:1009200010B504464D4894E80E0034300EC04C48D3
:1009300094E80E000EC0494890ED190A484880ED31
:100940000D0AFFF734FE10BD10B50446434894E885
:100950000E0040300EC0424894E80E000C300EC02D
:100960003E4890ED1A0A3E4880ED0E0AFFF71FFE42
:1009700010BD10B504463B4894E80E0008300EC088
:10098000374894E80E0018300EC0FFF710FE10BD77
:1009900010B50446314894E80E0058300EC0304877
:1009A00094E80E0024300EC0FFF701FE10BD10B514
:1009B0002D482E49D1E916344A6D096E80E81C0095
:1009C000C16001462948D0E91A34426E006FC1E97E
:1009D00005340A61C8612548D0E91E34426FD0F859
:1009E0008000C1E909340A62C8620A46204CD4E991
:1009F0001530D4E91714C2E90E14C2E90C301046C0
:100A00001B49D1E91942D1E91B31C0E91042C0E9C3
:100A100012311749D1E91D42D1E91F31C0E9144211
:100A2000C0E91631FFF7C3FD10BD10B511480088AD
:100A300020B110480088401C0E4908800D480088ED
:100A40003C2807DD00200B4908800B48007808B9D6
:100A5000FFF7ADFF10BD0000040000205031002062
:100A6000A80600206C050020E80600201C280020B5
:100A7000E028002058040020A8040020B7EE000A57
:100A8000FE4880ED180AB7EE000A80ED1C0AB7EEAA
:100A9000000A80ED200A9FEDFA0A80ED300A7047C7
:100AA00010B52DED0E8BB0EE408AF648D0ED000A61
:100AB000B0EE600AF3EE0E0A01F067FFDFEDF20A16
:100AC00080EE201AB3EE090A21EE000AEF4880ED0D
:100AD000000AEC48D0ED010AF1EE600AB0EE600ABF
:100AE000F3EE0E0A01F051FFDFEDE70A80EE201A67
:100AF000B3EE090A21EE000AE44880ED010AE44859
:100B0000007808BBDF48D0ED030AB0EE600ADFEDE5
:100B1000E10A01F089FFDFEDDC0A80EE201A9FED8B
:100B2000DE0A21EE000ABDEEC00A10EE100A00B285
:100B300000EE100AF8EEC00AD44890ED020A00EE6A
:100B4000880A80ED020A36E0D04890ED020AD348C8
:100B5000D0ED000A30EEC00A10EE101A084612F06E
:100B6000D6FC41EC1C0B18EE100A12F0D0FC41EC44
:100B70001E0B9FEDCB0B53EC102B12F045FC41EC00
:100B80001D0B53EC1C2B12F03FFC41EC1A0BBF4821
:100B900090ED020A10EE101A084612F0B8FC41EC73
:100BA0001B0B53EC1A2B12F088FB41EC190B12F0C3
:100BB000F1FCB6498860B548D0ED020AB0EE600A93
:100BC00001F046FFB14880ED020AB748D0ED000AB7
:100BD000AE4890ED001A70EE810AB44890ED001A0C
:100BE00070EEC10AB0EE600A01F032FFB04880ED4D
:100BF000000AAD48D0ED010AA44890ED011A70EE4C
:100C0000810AAC4890ED001A70EEC10AB0EE600A9D
:100C100001F01EFFA64880ED010AA348D0ED020AAC
:100C20009A4890ED021A70EE810A9C4890ED001AE5
:100C300070EEC10AB0EE600A01F00AFF9C4880ED38
:100C4000020A90ED000AB5EEC00AF1EE10FA02DDDC
:100C500090ED000A04E0964890ED000AB1EE400ADB
:100C6000F3EE0E0A80EE201A914880ED2D1A90EDD9
:100C7000010AB5EEC00AF1EE10FA02DD90ED010AAC
:100C800004E08B4890ED010AB1EE400AF3EE0E0A43
:100C900080EE201A864880ED2E1A90ED020AB5EEFD
:100CA000C00AF1EE10FA02DD90ED020A04E080487D
:100CB00090ED020AB1EE400AF3EE0E0A80EE201A21
:100CC0007B4880ED2F1ADFED7C0A80EE880AD0ED9C
:100CD000000A90ED031A70EEC10A90ED161AF2EEBA
:100CE000041A21EE211A60EE810A60EE200A90EDCE
:100CF0002D1A9FED720ADFED721A01EE810A20EEC5
:100D0000800A80ED0C0ADFED6C0A80EE880AD0EDD7
:100D1000010A90ED041A70EEC10A90ED1A1AF2EE73
:100D2000041A21EE211A60EE810A60EE200A90ED8D
:100D30002E1A9FED620ADFED621A01EE810A20EEA3
:100D4000800A80ED0D0ADFED5C0A80EE880AD0EDA6
:100D5000020A90ED051A70EEC10A90ED1E1AF2EE2D
:100D6000041A21EE211A60EE810A60EE200A90ED4D
:100D70002F1A9FED520ADFED521A01EE810A20EE82
:100D8000800A80ED0E0A90ED170AD0ED000A60EEA1
:100D9000200A90ED060A00EE880A80ED060A90ED22
:100DA0001B0AD0ED010A60EE200A90ED070A00EE62
:100DB000880A80ED070A90ED1F0AD0ED020A60EE66
:100DC000200A90ED080A00EE880A80ED080A3D48E6
:100DD00090ED000AF6EE000A20EE200AF3EE090A72
:100DE00020EE200A324880ED090A364890ED000ACC
:100DF000F6EE000A20EE200AF3EE090A20EE200AA1
:100E00002B4880ED0A0A2F4890ED000AF6EE000A02
:100E100020EE200AF3EE090A20EE200A244880ED95
:100E20000B0A90ED060AD0ED090AF1EE600AB4EE65
:100E3000E00AF1EE10FA04D290ED090AB1EE400A90
:100E40000FE01B4890ED060AD0ED090AB4EEE00A67
:100E5000F1EE10FA02DD90ED090A02E0144890ED7F
:100E6000060A134880ED060A90ED070AD0ED0A0A3B
:100E7000F1EE600AB4EEE00A26E000001C28002033
:100E8000CDCC4C3E382B00200000FA43A429002092
:100E90000C00002000002042000016432400002027
:100EA0001F85EB51B81E0940B02900201C0000200E
:100EB000E0280020200000200AD7A33B6666263FDA
:100EC0003333B33E10000020F1EE10FA04D290ED5F
:100ED0000A0AB1EE400A0FE0FC4890ED070AD0ED97
:100EE0000A0AB4EEE00AF1EE10FA02DD90ED0A0A09
:100EF00002E0F64890ED070AF44880ED070A90ED0D
:100F0000080AD0ED0B0AF1EE600AB4EEE00AF1EE49
:100F100010FA04D290ED0B0AB1EE400A0FE0EB4854
:100F200090ED080AD0ED0B0AB4EEE00AF1EE10FAEB
:100F300002DD90ED0B0A02E0E44890ED080AE34878
:100F400080ED080A90ED000ADFEDE10AB4EEE00A58
:100F5000F1EE10FA02D29FEDDE0A0FE0DB4890EDD1
:100F6000000ADFEDDC0AB4EEE00AF1EE10FA02DD71
:100F70009FEDD80A02E0D54890ED000AD34880EDF5
:100F8000000A90ED010ADFEDD20AB4EEE00AF1EEBC
:100F900010FA02D29FEDCE0A0FE0CC4890ED010A84
:100FA000DFEDCC0AB4EEE00AF1EE10FA02DD9FEDBF
:100FB000C90A02E0C54890ED010AC44880ED010A63
:100FC00090ED020ADFEDC20AB4EEE00AF1EE10FA8B
:100FD00002D29FEDBF0A0FE0BC4890ED020ADFEDA0
:100FE000BD0AB4EEE00AF1EE10FA02DD9FEDB90A97
:100FF00002E0B64890ED020AB44880ED020A90ED96
:10100000000AD0ED0C0A30EE200AD0ED060A30EED0
:10101000200AD0ED150A20EE200A80ED120A90ED8C
:10102000010AD0ED0D0A30EE200AD0ED070A30EEAD
:10103000200AD0ED190A20EE200A80ED130A90ED67
:10104000020AD0ED0E0A30EE200AD0ED080A30EE8A
:10105000200AD0ED1D0A20EE200A80ED140A90ED42
:10106000000A80ED030A90ED010A80ED040A90ED7C
:10107000020A80ED050ABDEC0E8B10BD10B52DEDFA
:10108000048B8AB0F0EE408AB0EE609AB0EE418AEE
:101090009FED910AB4EEC08AF1EE10FA02D29FEDF4
:1010A0008E0A0BE09FED8D0AB4EEC08AF1EE10FAC5
:1010B00002DD9FED8A0A01E0B0EE480AB0EE408AF8
:1010C000B1EE680A30EE090A30EE080A8DED040A26
:1010D00038EE890A30EE480A8DED050A38EEC90A65
:1010E00030EE080A8DED060AB1EE680A30EE490AC4
:1010F00030EE480A8DED070A002429E004A800EB31
:10110000840090ED000ADFED760AB4EEE00AF1EE1D
:1011100010FA02D29FED720A13E004A800EB8400DB
:1011200090ED000ADFED6F0AB4EEE00AF1EE10FA7E
:1011300002DD9FED6C0A04E004A800EB840090ED52
:10114000000A04A800EB840080ED000A601CC4B211
:10115000042CD3DB9DED040AB5EEC00AF1EE10FAC3
:1011600002DD9DED040A03E09DED040AB1EE400AA4
:10117000DFED5D0A60EE200A9FED5A1A80EE810ACB
:10118000DFED5A0A30EE200ADDED040A20EE200AD7
:101190008DED000A9DED050AB5EEC00AF1EE10FADC
:1011A00002DD9DED050A03E09DED050AB1EE400A62
:1011B000DFED4D0A60EE200A9FED4A1A80EE810AAB
:1011C000DFED4A0A30EE200ADDED050A20EE200AA6
:1011D0008DED010A9DED060AB5EEC00AF1EE10FA9A
:1011E00002DD9DED060A03E09DED060AB1EE400A20
:1011F000DFED3D0A60EE200A9FED3A1A80EE810A8B
:10120000DFED3A0A30EE200ADDED060A20EE200A74
:101210008DED020A9DED070AB5EEC00AF1EE10FA57
:1012200002DD9DED070A03E09DED070AB1EE400ADD
:10123000DFED2D0A60EE200A9FED2A1A80EE810A6A
:10124000DFED2A0A30EE200ADDED070A20EE200A43
:101250008DED030ADDED000A254890ED000A2548D2
:1012600090ED001A01EE200A234880ED000ADDED22
:10127000010A1F4890ED000A1E4890ED001A01EE89
:10128000200A1D4880ED010ADDED020A184890EDA4
:10129000000A184890ED001A01EE200A164880ED69
:1012A000020ADDED030A124890ED000A114890EDA4
:1012B000001A01EE200A104880ED030A0F4800785A
:1012C00078B30F48007868BB002447E0E02800208E
:1012D0000000B4C20000B4420000C8C30000C8430C
:1012E00000007AC400007A446666E63ECDCC0C3F2E
:1012F0000800002010000020F0290020A804002091
:101300000C000020FE4800EB840090ED000ADFEDA9
:10131000FD0AB4EEE00AF1EE10FA04D29FEDF90AEC
:1013200015E04BE01DE0F64800EB840090ED000A6C
:101330005FED140AB4EEE00AF1EE10FA02DD1FEDE3
:10134000170A04E0EE4800EB840090ED000AEC4838
:1013500000EB840080ED000A601CC4B2042CD1DBD9
:1013600039E0002427E0E64800EB840090ED000A15
:10137000B5EEC00AF1EE10FA02D29FEDE30A13E0D7
:10138000DF4800EB840090ED000A5FED2A0AB4EE1E
:10139000E00AF1EE10FA02DD1FED2E0A04E0D84853
:1013A00000EB840090ED000AD54800EB840080ED4E
:1013B000000A601CC4B2042CD5DB0CE0002408E059
:1013C0009FEDD10ACE4800EB840080ED000A601C3E
:1013D000C4B2042CF4DBCA4890ED000ABDEEC00A8A
:1013E00010EE100A00B2ADF82000C54890ED010AD9
:1013F000BDEEC00A10EE100A00B2ADF82200C048DF
:1014000090ED020ABDEEC00A10EE100A00B2ADF86F
:101410002400BB4890ED030ABDEEC00A10EE100A8E
:1014200000B2ADF826004FF47A72002108A804F04B
:10143000C4FF0AB0BDEC048B10BD10B52DED028BBE
:10144000B0EE408AB14890ED020ADFEDB10A30EE0D
:10145000200AB04880ED000AD0ED000A1FED611AA5
:1014600080EE810AAC48D0ED000A70EE600A9FED74
:10147000AB0A28EE001A90ED000A01EE200A80ED7A
:10148000000A90ED000AB5EEC00AF1EE10FA02D2A1
:101490009FED9D0A0FE0A04890ED000AF7EE000ACC
:1014A000B4EEE00AF1EE10FA02DDB7EE000A02E057
:1014B000994890ED000A9A4880ED000A954890ED11
:1014C000000ADFED980AB4EEE00AF1EE10FA03D25A
:1014D00001209549087002E00020934908708D486A
:1014E000D0ED000AB0EE480A03F07FFE8C4890ED84
:1014F000000A8E48D0ED000A20EE200A8C4880EDCC
:10150000000A90ED000AB5EEC00AF1EE10FA02D220
:101510009FED7D0A0FE0864890ED000ADFED850A19
:10152000B4EEE00AF1EE10FA02DD9FED820A02E06D
:101530007F4890ED000A7E4880ED000ABDEC028BEA
:1015400010BD00B52DED028B83B0B0EE408A7A4815
:1015500090ED120AF3EE0E0A80EE201A9FED770A44
:1015600021EE000A8DED000AD0ED130AB3EE0E1A3B
:1015700080EE810ADFED710A20EE200A8DED010A6E
:1015800090ED140AF3EE0E0A80EE201A9FED6B0A1E
:1015900021EE000A8DED020A9DED000A684880EDFB
:1015A000000A9DED010A80ED010A9DED020A80ED21
:1015B000020A90ED000ADFED630AB4EEE00AF1EEF4
:1015C00010FA02D29FED5F0A0FE05D4890ED000A2D
:1015D000DFED5A0AB4EEE00AF1EE10FA02DD9FEDFB
:1015E000570A02E0564890ED000A554880ED000A7F
:1015F00090ED010ADFED530AB4EEE00AF1EE10FAC5
:1016000002D29FED500A0FE04D4890ED010ADFED48
:101610004B0AB4EEE00AF1EE10FA02DD9FED470A44
:1016200002E0474890ED010A454880ED010A90ED3F
:10163000020ADFED440AB4EEE00AF1EE10FA02D23B
:101640009FED400A0FE03E4890ED020ADFED3B0AB5
:10165000B4EEE00AF1EE10FA02DD9FED380A02E086
:10166000374890ED020A364880ED020ADFED360A6F
:1016700080EE880A3548D0ED0A0A354890ED001A08
:1016800070EEC10A20EE200A324880ED0F0ADFED2D
:101690002E0A80EE880A2D48D0ED0B0AF1EE600A82
:1016A0002B4890ED011A70EEC10A20EE200A29485D
:1016B00080ED100ADFED240A80EE880A2348D0ED81
:1016C0000C0AF1EE600A224890ED021A70EEC10A8F
:1016D00020EE200A1F4880ED110A194890ED000AFB
:1016E0001A48D0ED0A0A30EE600AF7EE000A20EE42
:1016F000200A184880ED000A114890ED010A2BE0FD
:10170000F02900200000484300000000382B002092
:101710000000FA4314000020180000203433FB417D
:10172000100000200000C8420C000020D00400205F
:101730000800002000004844E028002000009643F4
:10174000C8290020000096C36F12033B50310020CF
:10175000D42900201C280020FE48D0ED0B0A30EED2
:10176000200AF7EE000A20EE200AFB4880ED010A6D
:10177000FA4890ED020AF748D0ED0C0A30EE200A44
:10178000F7EE000A20EE200AF34880ED020A90ED01
:10179000000AB5EEC00AF1EE10FA02DD90ED000A83
:1017A00004E0ED4890ED000AB1EE400A5FED1D0A3D
:1017B00080EE201AE84880ED2D1A90ED010AB5EE72
:1017C000C00AF1EE10FA02DD90ED010A04E0E248F1
:1017D00090ED010AB1EE400A5FED280A80EE201A72
:1017E000DD4880ED2E1A90ED020AB5EEC00AF1EE4A
:1017F00010FA02DD90ED020A04E0D74890ED020AEB
:10180000B1EE400ADFEDD60A80EE201AD24880ED14
:101810002F1A5FED330A80EE880AD0ED160A90ED9C
:101820000F1AFAEE041A21EE211A60EE810A20EE58
:10183000200A80ED0C0A5FED3C0A80EE880AD0EDAC
:101840001A0A90ED101AFAEE041A21EE211A60EE2F
:10185000810A20EE200A80ED0D0A5FED450A80EE38
:10186000880AD0ED1E0A90ED111AFAEE041A21EE44
:10187000211A60EE810A20EE200A80ED0E0A90ED1A
:10188000000AD0ED0F0A30EE600AD0ED170A60EEC4
:10189000200A90ED060A00EE880A80ED060A90ED17
:1018A000010AD0ED100A30EE600AD0ED1B0A60EE9E
:1018B000200A90ED070A00EE880A80ED070A90EDF5
:1018C000020AD0ED110A30EE600AD0ED1F0A60EE78
:1018D000200A90ED080A00EE880A80ED080AA14867
:1018E00090ED000AF6EE000A20EE200A5FED6D0A88
:1018F00020EE200A984880ED090A9A4890ED000AE7
:10190000F6EE000A20EE200A5FED740A20EE200AAF
:10191000914880ED0A0A934890ED000AF6EE000A1D
:1019200020EE200A5FED7B0A20EE200A8A4880ED37
:101930000B0A90ED060AD0ED090AF1EE600AB4EE4A
:10194000E00AF1EE10FA04D290ED090AB1EE400A75
:101950000FE0814890ED060AD0ED090AB4EEE00AE6
:10196000F1EE10FA02DD90ED090A02E07A4890EDFE
:10197000060A794880ED060A90ED070AD0ED0A0ABA
:10198000F1EE600AB4EEE00AF1EE10FA04D290ED46
:101990000A0AB1EE400A0FE06F4890ED070AD0ED59
:1019A0000A0AB4EEE00AF1EE10FA02DD90ED0A0A3E
:1019B00002E0694890ED070A674880ED070A90ED5C
:1019C000080AD0ED0B0AF1EE600AB4EEE00AF1EE7F
:1019D00010FA04D290ED0B0AB1EE400A0FE05E4817
:1019E00090ED080AD0ED0B0AB4EEE00AF1EE10FA21
:1019F00002DD90ED0B0A02E0574890ED080A5648C8
:101A000080ED080A90ED300AF7EE000A30EEC00AC9
:101A1000D0ED150A20EE200AD0ED000A90ED0C1A48
:101A200070EE810A90ED061A70EE810A60EE200ACF
:101A300090ED301A4C48D0ED2D1A9FED4C0A9FEDD9
:101A40004C2A02EE210AB5EEC00AF1EE10FA02D2DB
:101A50001FEDD30A1BE04448D0ED2D1A9FED430A39
:101A60009FED432A02EE210AF7EE001AB4EEE10AD6
:101A7000F1EE10FA02DDB7EE000A08E03A48D0EDC8
:101A80002D1A9FED3A0A9FED3A2A02EE210A21EE25
:101A9000000A324890ED001A40EE010AB0EE080A42
:101AA00020EE800A2C4880ED120A90ED300AF7EE05
:101AB000000A30EEC00AD0ED190A20EE200AD0ED5F
:101AC000010A90ED0D1A70EE810A90ED071A70EE82
:101AD000810A60EE200A90ED301A2348D0ED2E1ACC
:101AE0009FED220A9FED222A02EE210AB5EEC00ADE
:101AF000F1EE10FA02D21FEDFC0A1BE01A48D0EDFD
:101B00002E1A9FED1A0A9FED1A2A02EE210AF7EE0D
:101B1000001AB4EEE10AF1EE10FA02DDB7EE000AA7
:101B200008E01148D0ED2E1A9FED100A9FED102A03
:101B300002EE210A21EE000A084890ED011A40EE5B
:101B4000010AB0EE080A20EE800A034880ED130A6D
:101B500010E00000503100201C280020C82900207F
:101B60000000164310000020E02800206666E63ED4
:101B7000CDCC0C3F90ED300AF7EE000A30EEC00AF3
:101B8000D0ED1D0A20EE200AD0ED020A90ED0E1ACB
:101B900070EE810A90ED081A70EE810A60EE200A5C
:101BA00090ED301A3A48D0ED2F1A1FED100A1FEDB4
:101BB000102A02EE210AB5EEC00AF1EE10FA02D2A6
:101BC0009FED340A1BE03248D0ED2F1A1FED190AA1
:101BD0001FED192A02EE210AF7EE001AB4EEE10A0F
:101BE000F1EE10FA02DDB7EE000A08E02848D0ED69
:101BF0002F1A1FED220A1FED222A02EE210A21EEE2
:101C0000000A254890ED021A40EE010AB0EE080ADB
:101C100020EE800A214880ED140AB0EE480AFFF752
:101C20000CFC1E48D0ED141AB0EE611AD0ED131A58
:101C3000F0EE610AD0ED121AB0EE610AFFF71EFA5B
:101C4000164890ED000A80ED030A90ED010A80ED40
:101C5000040A90ED020A80ED050A114890ED0A0A87
:101C6000104880ED000A0E4890ED0B0AB1EE400AD4
:101C70000C4880ED010A0A4890ED0C0AB1EE400ACA
:101C8000084880ED020A03B0BDEC028B00BD0000E5
:101C9000E028002000000000C82900201C280020A7
:101CA00050310020D429002070B52DED108BB0EEFE
:101CB000408AB0EE60EAF0EE41EAB0EE61FAF0EE92
:101CC000429AB0EE629AF0EE438A04460D461646FA
:101CD0009FEDFB0A28EE000AF3EE040A20EE200A2C
:101CE000F0EE40AAF748D0ED080A60EEA00A90EDA9
:101CF000091AD0ED091A41EE210A90ED0A1AD0ED29
:101D00000A1A41EE210AB0EE600A00F006FDEE4824
:101D100080ED000A90ED000AB5EEC00AF1EE10FA6F
:101D200038D0E84890ED080AE748D0ED000A80EE88
:101D3000201AE64890ED000A71EE400A90ED000A84
:101D40000AEEA00A80ED000ADE4890ED090ADE489E
:101D5000D0ED000A80EE201ADC4890ED010A71EE09
:101D6000400A90ED010A0AEEA00A80ED010AD5486A
:101D7000D0ED0A0AD44890ED001A80EE810AD348CB
:101D8000D0ED020A70EE600A90ED020A0AEEA00A97
:101D900080ED020ACE4ACD49CE4803F0D0F8CC48B7
:101DA000D0ED000A60EEA00A90ED011AD0ED011A04
:101DB00041EE210AB0EE600A00F0AFFCC64880EDAB
:101DC000000AC34890ED000AB5EEC00AF1EE10FA21
:101DD00036D090ED010AB5EEC00AF1EE10FA2FD020
:101DE00090ED020AB5EEC00AF1EE10FA28D0BA481A
:101DF00090ED000AB5EEC00AF1EE10FA20D0B4481A
:101E000090ED000AB448D0ED000A80EE201AB0EE42
:101E100041BAAF4890ED010AAF48D0ED000A80EE1C
:101E2000201AF0EE41BAF0EE4B0AB0EE6B0A00F069
:101E3000B4FBDFEDAA0A20EE200AA94880ED000AD3
:101E4000A84890ED010AD0ED030A20EE200AD0ED5B
:101E5000000A90ED021A00EEC10AF0EE000A20EE30
:101E6000200A9C4880ED000A9E4890ED000AD0EDC3
:101E7000010A20EE200AD0ED020A90ED031A00EECE
:101E8000810AF0EE000A20EE200A924880ED010A55
:101E9000944890ED010A20EE000AD0ED020A90ED80
:101EA000021A00EE810AF7EE000AB0EE001A41EEC7
:101EB000400A8848C0ED020A69EEA90A49EE090AFB
:101EC00048EEA80AB0EE600A00F027FC864880EDD4
:101ED000000A9FED7B0A28EE000AF2EE040A60EE8B
:101EE000200A90ED000A814890ED001A30EE411A68
:101EF00090ED000A00EE810A80ED000AF5EEC09A2E
:101F0000F1EE10FA02DDB0EE690A01E0B1EE690A05
:101F1000DFED770AB4EEE00AF1EE10FA7DD2B5EE0D
:101F2000C09AF1EE10FA02DDB0EE490A01E0B1EE1E
:101F3000490ADFED6F0AB4EEE00AF1EE10FA78D24A
:101F4000F5EEC08AF1EE10FA02DDB0EE680A01E0AB
:101F5000B1EE680ADFED660AB4EEE00AF1EE10FABF
:101F600067D2614890ED000AC9EE800AF0EE609AEF
:101F700090ED000AC9EE000AB0EE609A90ED000AFA
:101F8000C8EE800AF0EE608A90ED000ADFED590A93
:101F9000B4EEE00AF1EE10FA54DD90ED000ADFED48
:101FA000540AB4EEE00AF1EE10FA4BD2494890ED33
:101FB000020A20EE090AD0ED010A08EEE00A4E48B6
:101FC00080ED030A434890ED000A20EE280AD0ED88
:101FD000020A09EEE00A484880ED040A9FED380A3B
:101FE00028EE000AF7EE000A20EE20AA90ED030A80
:101FF000D0ED060A70EE600A90ED060A0AEE200A9D
:1020000080ED060A90ED040AD0ED070A70EE600A32
:1020100090ED070A0AEE200A00E00AE080ED070AC8
:1020200090ED060A80ED000A90ED070A80ED010AA6
:1020300008E09FED320A304880ED000A9FED2F0A3C
:1020400080ED010A2C4890ED090AD0ED000A9FEDC1
:102050002C1A60EE810AB0EE001A60EE810A00EEE2
:10206000880A80ED090A90ED0A0AD0ED010A9FED79
:10207000241A60EE810AB0EE001A60EE810A00EECA
:10208000880A80ED0A0A90ED0B0AD0ED020A9FED56
:102090001C1A60EE810AB0EE001A60EE810A00EEB2
:1020A000880A80ED0B0A90ED090ADFED160AB4EEFE
:1020B000E00AF1EE10FA27D29FED120A34E0000098
:1020C000C3F5C8406C05002048000020742A002099
:1020D000682A0020202A0020440000203333654273
:1020E0005000002028000020380000204000002080
:1020F0000080894500806D452C2A002000000000EA
:10210000CDCCCC3D34FA0EBDFE4890ED090ADFED92
:10211000FE0AB4EEE00AF1EE10FA02DD9FEDFA0AD3
:1021200002E0F84890ED090AF64880ED090A90EDC2
:102130000A0A5FED0C0AB4EEE00AF1EE10FA02D2E0
:102140001FED100A0FE0EF4890ED0A0ADFEDEE0AEE
:10215000B4EEE00AF1EE10FA02DD9FEDEB0A02E0C8
:10216000E84890ED0A0AE74880ED0A0A90ED0B0A6C
:102170005FED1C0AB4EEE00AF1EE10FA02D21FED98
:102180001F0A0FE0DF4890ED0B0ADFEDDF0AB4EE27
:10219000E00AF1EE10FA02DD9FEDDB0A02E0D94819
:1021A00090ED0B0AD74880ED0B0AD84890ED020A53
:1021B000B5EEC00AF1EE10FA29DDD548007898B1E5
:1021C000D448D0ED000AD44890ED001A70EEC10A50
:1021D000B0EE600A00F03CFCDFEDD00A20EE200AF1
:1021E000CF4880ED000A12E0CA48D0ED000ACA4884
:1021F00090ED001A70EEC10AB0EE600A00F028FC03
:10220000DFEDC80A20EE200AC54880ED000ABD486F
:1022100090ED000AD0ED090A30EE200ADFEDC20A87
:1022200020EE200AB94890ED001ABD48D0ED001A02
:10223000F0EE4E0A41EE610A9FEDBC1A00EE810AF3
:10224000B04880ED0C0A90ED010AD0ED0A0A30EE9C
:10225000200ADFEDB50A20EE200AAC4890ED011A05
:10226000AF48D0ED001AF0EE6E0A41EE610A9FED24
:10227000AF1A00EE810AA34880ED0D0AA348D0ED05
:10228000020AA74890ED001AB0EE4F0A00EEC10A0C
:10229000DFEDA60A20EE200A9A4880ED0E0AA44837
:1022A00090ED010AB1EE400A9648D0ED0C0A20EEFE
:1022B000200A9F48D0ED020A924890ED0D1A00EED8
:1022C000C10A9B48D0ED030A8E4890ED0E1A00EE2D
:1022D000C10A9748D0ED000A40EE080AC0ED000A96
:1022E00090ED000A8748D0ED0C0A20EE200A9048B5
:1022F000D0ED020A834890ED0E1A00EE810A8C4858
:10230000D0ED030A7F4890ED0D1A00EEC10A88480F
:10231000D0ED010A40EE080AC0ED010A90ED000A76
:102320007848D0ED0D0A20EE200A8148D0ED010A50
:10233000744890ED0E1A00EEC10A7D48D0ED030AF4
:10234000704890ED0C1A00EE810A7948D0ED020A2F
:1023500040EE080AC0ED020A90ED000A6948D0ED8F
:102360000E0A20EE200A7248D0ED010A654890ED71
:102370000D1A00EE810A6E48D0ED020A614890ED18
:102380000C1A00EEC10A6A48D0ED030A40EE080AB2
:10239000C0ED030AD0ED000A60EEA00A90ED011A2C
:1023A000D0ED011A41EE210A90ED021AD0ED021A89
:1023B00041EE210A90ED031AD0ED031A41EE210AF5
:1023C000B0EE600A00F0A9F95A4880ED000A5848BA
:1023D00090ED000A5748D0ED000A80EE201A5448CC
:1023E00080ED001A90ED010A5248D0ED000A80EE0F
:1023F000201A4F4880ED011A90ED020A4D48D0EDA9
:10240000000A80EE201A4A4880ED021A90ED030A75
:102410004848D0ED000A80EE201A454880ED031AA6
:1024200090ED011A21EE011AD0ED021A90ED022A68
:1024300001EE821AF7EE001AB0EE002A42EE411ABF
:10244000F0EE610A90ED001AD0ED011A21EE211A8A
:10245000D0ED021A90ED032A01EE821AF0EE001A76
:1024600021EE211AB0EE410A00F097F85FEDE50A7F
:1024700020EE200A84ED000A2D4890ED010AD0EDEF
:10248000030A20EE200AD0ED000A90ED021A00EEB9
:10249000C10AF0EE000A20EE200A10EE101A0846DB
:1024A00011F035F841EC1D0BB0EE4D0AF0EE6D0A5F
:1024B00011F066FAB0EE40CAF0EE60CA9FED1E0B56
:1024C00053EC102B51EC1C0B10F09EFF41EC1B0B3E
:1024D00011F060F82860164890ED001A21EE011AFC
:1024E000D0ED011A90ED012A01EE821AF7EE001AE2
:1024F000B0EE002A52EE011AF0EE610A90ED011AD8
:102500001EE000002C2A002034FA0E3D202A002074
:10251000A8040020500000202400002090C2F53DB7
:102520004C0000206766663F9A99193F34FA8E3C4A
:10253000280000203C0000200000006066A64C40FF
:10254000B1EE411AD0ED021A21EE211AD0ED001A97
:1025500090ED032A01EEC21AF0EE001A21EE211AC4
:10256000B0EE410A00F019F8DFED040A20EE200A6F
:1025700086ED000ABDEC108B70BD00003333654260
:10258000F0EE400AF5EEC00AF1EE10FA02DBB0EE12
:10259000600A7047B1EE600AFBE700B5B0EE403A62
:1025A000B0EE602AB5EEC03AF1EE10FA07D1B5EE02
:1025B000C02AF1EE10FA02D19FEDFD1A99E0B0EEBB
:1025C000430AFFF7DDFFF0EE403AB0EE420AFFF7B4
:1025D000D7FFF0EE402AF4EEE23AF1EE10FA02D222
:1025E00083EEA24A01E082EEA34A9FEDF20AB4EE26
:1025F000C04AF1EE10FA02D2F0EE441A2DE0DFEDFF
:10260000EE0AB6EE000A14EE200AF0EE404ABDEEE5
:10261000E40A10EE100A00EE100AB8EEC00A34EE1A
:10262000C00AF0EE404AE54901EB800191ED000A55
:10263000F0EE401AE14A411C02EB810191ED000AE3
:10264000114601EB8001D1ED000A70EE600AB0EE98
:10265000610A00EEA40AF0EE401AF4EEE32AF1EE6D
:1026600010FA20DDB5EEC02AF1EE10FA0ADBB5EE65
:10267000C03AF1EE10FA02DBB0EE611A39E0B1EEC9
:10268000611A36E09FEDCE1AB5EEC03AF1EE10FABF
:1026900004DB31EE610AB0EE401A2AE031EEC10AE5
:1026A000B0EE401A25E0B5EEC03AF1EE10FA10DBBC
:1026B0009FEDC41AB5EEC02AF1EE10FA04DB31EE3C
:1026C000610AB0EE401A14E031EE210AB0EE401A71
:1026D0000FE09FEDBD1AB5EEC02AF1EE10FA04DB53
:1026E00031EE210AB0EE401A03E031EE610AB0EE9D
:1026F000401AB0EE410A00BD00B5B0EE405AF0EE0F
:10270000605AF0EE450AB0EE650AFFF746FF00BDDD
:10271000F0EE400A20EEA00A7047B0EE401AB7EE85
:10272000080AB0EE402AB6EE000A21EE000AF0EEEA
:10273000401AF0EE410A10EE900AA449A1EB6000A5
:1027400000EE900A61EEA02AB7EE080A02EEE00A57
:1027500020EE200AF0EE400A61EEA02AB7EE080A49
:1027600002EEE00A20EE200AF0EE400A21EE200AF6
:10277000704710B52DED0A8BB0EE409AF0EE609ADE
:102780009FED930B53EC102B51EC190B10F0D2FE74
:1027900018D29FED910B53EC102B51EC190B10F04C
:1027A00033FE41EC1B0B9FED8E0B53EC102B10F006
:1027B00084FD41EC1A0B53EC192B10F025FE41EC73
:1027C000180B17E09FED840B53EC102B51EC190BF9
:1027D00010F01AFE41EC1B0B9FED810B53EC102BFC
:1027E00010F00FFE41EC1A0B53EC192B10F00CFEFD
:1027F00041EC180B9FED760B53EC102B51EC180BA2
:1028000010F098FE20D29FED780B53EC102B51EC7A
:10281000180B10F052FD41EC1C0B9FED750B53ECA7
:10282000102B10F0F1FD41EC1B0B9FED6F0B53ECE7
:10283000102B10F042FD41EC1A0B53EC182B10F04A
:10284000E3FD41EC180B1FE09FED670B53EC102BE1
:1028500051EC180B10F0D2FD41EC1C0B9FED660BF8
:1028600053EC102B10F0D0FD41EC1B0B9FED5E0BD9
:1028700053EC102B10F021FD41EC1A0B53EC182BEC
:1028800010F0C2FD41EC180BB0EE480AF0EE680AF9
:10289000BDEC0A8B10BD10B52DED068BB0EE408A55
:1028A000F0EE608A01249FED560B53EC102B51EC97
:1028B000180B10F057FE0AD89FED510B53EC102B5C
:1028C00051EC180B10F09AFD41EC180BA41E204699
:1028D00010F00CFE41EC190BB0EE480AF0EE680A5D
:1028E000FFF747FFB0EE40AAF0EE60AA53EC192BB9
:1028F00051EC1A0B10F088FD41EC100BBDEC068B6F
:1029000010BD10B52DED088BB0EE408AF0EE608A58
:1029100001249FED3D0B53EC102B51EC180B10F0E4
:10292000CCFC41EC180B9FED360B53EC102B51EC0B
:10293000180B10F017FE0AD8A41E9FED310B53ECB4
:10294000102B51EC180B10F059FD41EC180B2046E0
:1029500010F0CCFD41EC1A0BB0EE480AF0EE680A1C
:10296000FFF799FFB0EE40BAF0EE60BA53EC1A2BC5
:1029700051EC1B0B10F048FD41EC190B10F00AFE56
:1029800000EE100ABDEC088B10BDB0EE401AB5EE9B
:10299000C01AF1EE10FA3BDD31EE600AB5EEC00A66
:1029A000F1EE10FA3FD2DFED021AB0EE610A3AE022
:1029B000000000008180803B000080435400002024
:1029C000DB0F4940DB0FC93FDB0FC9BFDF59375F62
:1029D0000000000000000000000000602FF0D93F60
:1029E00000000060305FF43F000000000000F03F96
:1029F000000000C0CCCCCCBF000000C0CCCCCC3F91
:102A0000F1D4C853FB210940F1D4C853FB21F93F4D
:102A100031EE200AB5EEC00AF1EE10FA03DD5FEDEB
:102A20001C1AB0EE610A7047B0EE401AF1EE601A5F
:102A3000B4EEE11AF1EE10FA07DDB4EEE01AF1EEB1
:102A400010FA02D21FED260A01E0B0EE410A7047EB
:102A5000F0EE400A9FED210AF4EEC00AF1EE10FA02
:102A600004DD9FED1F0A30EEC00A70479FED1D0A7E
:102A7000F4EEC00AF1EE10FA04D29FED190A30EE1E
:102A8000800AF2E7B0EE600AEFE7F0EE401AB7EE28
:102A9000000AF4EEC00AF1EE10FA04DCF5EEC00A0A
:102AA000F1EE10FA02D21FED3E0A704781EE810A64
:102AB000B5EEC00AF1EE10FA02DD81EE810A03E004
:102AC00081EE810AB1EE400A20EE202AB7EE000A1C
:102AD00030EE600A02EE210AE7E70000000034430E
:102AE0000000B443000034C370B505460C462146CF
:102AF000F84804F0DEFD70BD2DE9F0432DED028BAA
:102B000083B005460E4617469846B0EE408A00242C
:102B1000AA222146641CEF4842542146641C4254B8
:102B200004222146641C425400222146641C425463
:102B30002146641C45542146641C465401979DF867
:102B400007202146641C42549DF806202046611C43
:102B5000CCB2E0490A549DF805202046611CCCB255
:102B6000DC490A549DF804202046611CCCB2D949A6
:102B70000A54CDF804809DF807202046611CCCB291
:102B8000D4490A549DF806202046611CCCB2D14994
:102B90000A549DF805202046611CCCB2CD490A5448
:102BA0009DF804202046611CCCB2CA490A549FED0E
:102BB000CA0A28EE000ABDEEC00A10EE100A00B2E2
:102BC00002909DF809202046611CCCB2C1490A54EC
:102BD0009DF808202046611CCCB2BE490A54201F33
:102BE000C8704FF00009002006E0BA49095C49446A
:102BF00001F0FF09411CC8B2A042F6DB2046611C6F
:102C0000CCB2B44901F800902146B248FFF76CFFFE
:102C100003B0BDEC028BBDE8F08370B52DED0A8BDF
:102C200082B00546B0EE408AF0EE608AB0EE419A7E
:102C3000F0EE619AB0EE42AAF0EE62AAB0EE43BAAC
:102C4000F0EE63BAB0EE44CA0024AA222146641C06
:102C5000A04842542146641C425405F10F00C2B200
:102C60002146641C9B48425400222146641C425465
:102C70009FED9A0A28EE000ABDEEC00A10EE100A77
:102C800000B201909DF805202146641C91484254F1
:102C90009DF804202146641C42549FED900A28EEC2
:102CA000800ABDEEC00A10EE100A00B201909DF835
:102CB00005202146641C874842549DF80420204684
:102CC000611CCCB283490A549FED840A29EE000AA4
:102CD000BDEEC00A10EE100A00B201909DF805206A
:102CE0002046611CCCB27B490A549DF80420204642
:102CF000611CCCB277490A549FED780A29EE800A0C
:102D0000BDEEC00A10EE100A00B201909DF8052039
:102D10002046611CCCB26F490A549DF8042020461D
:102D2000611CCCB26B490A549FED6C0A2AEE000A72
:102D3000BDEEC00A10EE100A00B201909DF8052009
:102D40002046611CCCB263490A549DF804202046F9
:102D5000611CCCB25F490A549FED600A2AEE800ADA
:102D6000BDEEC00A10EE100A00B201909DF80520D9
:102D70002046611CCCB257490A549DF804202046D5
:102D8000611CCCB253490A549FED540A2BEE000A41
:102D9000BDEEC00A10EE100A00B201909DF80520A9
:102DA0002046611CCCB24B490A549DF804202046B1
:102DB000611CCCB247490A549FED480A2BEE800AA9
:102DC000BDEEC00A10EE100A00B201909DF8052079
:102DD0002046611CCCB23F490A549DF8042020468D
:102DE000611CCCB23B490A549FED3C0A2CEE000A10
:102DF000BDEEC00A10EE100A00B201909DF8052049
:102E00002046611CCCB233490A549DF80420204668
:102E1000611CCCB22F490A54201FC8700026002024
:102E200005E02C49095C3144CEB2411CC8B2A04235
:102E3000F7DB2046611CCCB226490E5421462548BA
:102E4000FFF752FE02B0BDEC0A8B70BDF8B5054627
:102E50000E460024AA222146641C1E4842542146E4
:102E6000641C425405222146641C4254002221461F
:102E7000641C425400959DF801202146641C425474
:102E80009DF800202146641C425400969DF80120C4
:102E90002146641C42549DF800202146601CC4B2A7
:102EA0000C484254201F0B49C8700027002005E041
:102EB0000849095C3944CFB2411CC8B2A042F7DBD3
:102EC0002046611CCCB203490F5421460148FFF74C
:102ED0000BFEF8BD912A00200000C84200007A4491
:102EE0007FB50024AA222146641CFE484254214694
:102EF000641C425406222146641C4254002221468E
:102F0000641C42549DF801202146641C42549DF8E3
:102F100000202146641C42549DF805202146641C73
:102F200042549DF804202046611CCCB2ED490A545D
:102F30009DF809202046611CCCB2EA490A549DF84C
:102F400008202046611CCCB2E6490A549DF80D20A9
:102F50002046611CCCB2E3490A549DF80C2021465E
:102F6000601CC4B2DF4842549DF821202046611CF9
:102F7000CCB2DC490A549DF820202046611CCCB21A
:102F8000D8490A549DF825202046611CCCB2D54969
:102F90000A549DF824202046611CCCB2D1490A5421
:102FA0009DF829202046611CCCB2CE490A549DF8D8
:102FB00028202046611CCCB2CA490A549DF82D2015
:102FC0002046611CCCB2C7490A549DF82C202046EB
:102FD000611CCCB2C3490A54201FC87000250020D0
:102FE00005E0C049095C2944CDB2411CC8B2A042E9
:102FF000F7DB2046611CCCB2BA490D542146B948D2
:10300000FFF772FD7FBD7FB50024AA222146641C14
:10301000B44842542146641C425403222146641C95
:10302000425400222146641C42549DF8012021464E
:10303000641C42549DF800202146641C42549DF8B3
:1030400005202146641C42549DF804202046611C42
:10305000CCB2A4490A549DF809202046611CCCB288
:10306000A0490A549DF808202046611CCCB29D4915
:103070000A549DF80D202046611CCCB299490A548F
:103080009DF80C202046611CCCB296490A549DF84C
:1030900021202046611CCCB292490A549DF8202080
:1030A0002146601CC4B28F4842549DF8252020461A
:1030B000611CCCB28B490A549DF824202046611C27
:1030C000CCB288490A549DF829202046611CCCB214
:1030D00084490A549DF828202046611CCCB28149BD
:1030E0000A549DF82D202046611CCCB27D490A541B
:1030F0009DF82C202046611CCCB27A490A549DF8D8
:1031000031202046611CCCB276490A549DF830200B
:103110002046611CCCB273490A549DF835202046E4
:10312000611CCCB26F490A549DF834202046611CC2
:10313000CCB26C490A54201FC8700025002005E05D
:103140006849095C2944CDB2411CC8B2A042F7DBF2
:103150002046611CCCB263490D5421466148FFF7FB
:10316000C3FC7FBD73B50024AA222146641C5D48C0
:1031700042542146641C425407222146641C425496
:1031800000222146641C42549DF803202146641C01
:1031900042549DF802202146641C42549DF80120AF
:1031A0002146641C42549DF800202046611CCCB28C
:1031B0004C490A549DF805202046611CCCB249496F
:1031C0000A549DF804202046611CCCB245490A549B
:1031D000201FC8700025002005E04249095C2944F1
:1031E000CDB2411CC8B2A042F7DB2046611CCCB274
:1031F0003C490D5421463B48FFF776FC7CBD2DE948
:10320000F84F05460E4617469846DDE90AAB0024FE
:10321000AA222146641C334842542146641C42546D
:1032200002222146641C425400222146641C42545E
:1032300000959DF801202146641C42549DF8002011
:103240002146641C425400969DF801202146641CCE
:1032500042549DF800202146601CC4B221484254CB
:1032600000979DF801202046611CCCB21D490A54EC
:103270009DF800202046611CCCB21A490A54CDF8B2
:1032800000809DF801202046611CCCB215490A54EB
:103290009DF800202046611CCCB212490A54CDF89A
:1032A00000A09DF801202046611CCCB20D490A54B3
:1032B0009DF800202046611CCCB20A490A54CDF882
:1032C00000B09DF801202146601CC4B2054842545C
:1032D0009DF800202146601CC4B2024842540C985C
:1032E000009001E0912A00209DF801202046611CF9
:1032F000CCB2F8490A549DF800202046611CCCB29B
:10330000F4490A540D9800909DF801202046611C54
:10331000CCB2F0490A549DF800202046611CCCB282
:10332000EC490A540E9800909DF801202046611C3B
:10333000CCB2E8490A549DF800202046611CCCB26A
:10334000E4490A54002000909DF801202046611CA9
:10335000CCB2E0490A549DF800202046611CCCB252
:10336000DC490A54201FC8704FF00009002006E015
:10337000D849095C494401F0FF09411CC8B2A04288
:10338000F6DB2046611CCCB2D24901F80090214600
:10339000D048FFF7A9FBBDE8F88F38B50024AA2272
:1033A0002146641CCB4842542146641C4254F122FD
:1033B0002146641C425400222146641C42540020D1
:1033C00000909DF801202146641CC24842549DF89B
:1033D00000202146641C4254BF4890ED000ABDEE17
:1033E000C00A10EE100A00B200909DF8012021469C
:1033F000641CB84842549DF800202046611CCCB2A1
:10340000B4490A54B44890ED000ABDEEC00A10EE6B
:10341000100A00B200909DF801202046611CCCB239
:10342000AC490A549DF800202046611CCCB2A94941
:103430000A54002000909DF801202046611CCCB267
:10344000A4490A549DF800202046611CCCB2A14931
:103450000A54002000909DF801202046611CCCB247
:103460009C490A549DF800202046611CCCB2994921
:103470000A54201FC8700025002005E09549095C0A
:103480002944CDB2411CC8B2A042F7DB2046611CE2
:10349000CCB290490D5421468E48FFF725FB38BD2C
:1034A00030B52DED048B81B0B0EE408AF0EE608A2D
:1034B000B0EE419A0024AA222146641C8548425459
:1034C0002146641C42540B222146641C42540022B3
:1034D0002146641C42549FED810A28EE000ABDEE8D
:1034E000C00A10EE100A00B200909DF8012021469B
:1034F000641C784842549DF800202146641C4254C4
:103500009FED760A28EE800ABDEEC00A10EE100A82
:1035100000B200909DF801202146641C6D48425481
:103520009DF800202046611CCCB26A490A549FEDE8
:103530006B0A29EE000ABDEEC00A10EE100A00B2B6
:1035400000909DF801202046611CCCB261490A54CC
:103550009DF800202046611CCCB25E490A54201F11
:10356000C8700025002005E05A49095C2944CDB205
:10357000411CC8B2A042F7DB2046611CCCB25549C1
:103580000D5421465348FFF7AFFA01B0BDEC048B50
:1035900030BD2DE9F0432DED048B83B0B0EE408AB1
:1035A000F0EE608AB0EE419A05460E461746984600
:1035B00000240196AA222146641C46484254214612
:1035C000641C425401222146641C425400222146BC
:1035D000641C42549FED420A28EE000ABDEEC00A68
:1035E00010EE100A00B202909DF809202146641CDA
:1035F000384842549DF808202146641C42549FEDEF
:10360000380A28EE800ABDEEC00A10EE100A00B299
:1036100002909DF809202146641C2E4842549DF8D2
:1036200008202046611CCCB22A490A549FED2C0A7E
:1036300029EE000ABDEEC00A10EE100A00B2029098
:103640009DF809202046611CCCB222490A549DF8FD
:1036500008202046611CCCB21E490A5402959DF8F0
:1036600009202046611CCCB21A490A549DF8082052
:103670002046611CCCB217490A549DF80720204609
:10368000611CCCB213490A549DF806202046611CE7
:10369000CCB210490A549DF805202046611CCCB2DA
:1036A0000C490A549DF804202046611CCCB20949FB
:1036B0000A542046611CCCB206490F542046611CB6
:1036C000CCB2044901F80080201FC8704FF00009F7
:1036D00000200EE0912A0020D8040020CDCCCC3D63
:1036E0000000C842FB49095C494401F0FF09411C44
:1036F000C8B2A042F6DB2046611CCCB2F54901F805
:1037000000902146F348FFF7EFF903B0BDEC048BBE
:10371000BDE8F0837FB505460024AA222146641C3B
:10372000EC4842542146641C425400222146641C49
:1037300042542146641C42542146641C45549DF861
:1037400005202146641C42549DF804202146641C37
:1037500042549DF809202046611CCCB2DD490A5430
:103760009DF808202046611CCCB2DA490A549DF825
:103770000D202046611CCCB2D6490A549DF80C207D
:103780002046611CCCB2D3490A549DF82120204622
:10379000611CCCB2CF490A549DF820202046611C00
:1037A000CCB2CC490A54201FC8700026002005E086
:1037B000C849095C3144CEB2411CC8B2A042F7DB13
:1037C0002046611CCCB2C3490E542146C148FFF7C4
:1037D0008BF97FBD10B586B0BF480078BF49097826
:1037E00090FBF1F201FB1201BC480078401E8142BF
:1037F00002D10120BA498870B7480078B9490978E0
:1038000090FBF1F201FB1201B6480078401E8142A4
:1038100002D10120B249C870AF480078B249097896
:1038200090FBF1F201FB1201AF480078801E81424B
:1038300002D10120AA498873A7480078AB490978CA
:1038400090FBF1F201FB1201A8480078401E814272
:1038500002D10120A24948709F480078A449097804
:1038600090FBF1F201FB1201A1480078401E814259
:1038700002D101209A498872974800789D490978B9
:1038800090FBF1F201FB12019A480078801E814200
:1038900002D10120924908738F480078964909782F
:1038A00090FBF1F201FB120193480078801E8142E7
:1038B00002D101208A494873874800788F490978E6
:1038C00090FBF1F201FB12018C480078C01E81428E
:1038D00002D101208249C8737F480078884909785D
:1038E00090FBF1F201FB120185480078C01E814275
:1038F00004D17B48007C401C7949087476480078E4
:10390000401CC0B274490870C82801DD002008704E
:103910007348007860B10020714908704FF4C87393
:1039200064224FF4967100900420FFF7F3FEF7E154
:103930006B484078B0B100206949487071480378FD
:103940007148027800217148008800B2704C94EDF3
:10395000001A704CD4ED000A6F4C94ED000AFFF78A
:1039600018FEDDE15E48C07B60B100205C49C87391
:103970006A4890ED001ADFED6A0A9FED690AFFF7C9
:103980008FFDCDE15648807B28B1002054498873D3
:10399000FFF703FDC4E152488078E8B300205049A6
:1039A0008870604890ED0A0ABDEEC00A10EE100A59
:1039B00000B25C4991ED090ABDEEC00A10EE101A82
:1039C00009B2584A92ED080ABDEEC00A10EE102A5C
:1039D00012B2554B93ED090ABDEEC00A10EE103A33
:1039E0001BB2CDE90132CDE903104F4890ED080A32
:1039F000BDEEC00A10EE100A00B24B4C009094EDE0
:103A0000070ABDEEC00A10EE104A23B2464C94EDF0
:103A1000060ABDEEC00A00E015E010EE104A22B220
:103A2000414C94ED050ABDEEC00A10EE104A21B2D9
:103A30003D4C94ED040ABDEEC00A10EE104A20B2CF
:103A4000FFF7DDFB6CE12648C07840B10020244937
:103A5000C8702E4801880020FFF784FB60E12048F1
:103A6000807AA8B300201E49887240F2DC522F48A9
:103A7000C08900F2DC5080B22C49898901F2DC5106
:103A800089B2CDE90302294805920291408900F2EA
:103A9000DC5080B22549098901F2DC5189B2234CFE
:103AA000CDE90010648804F2DC54A3B21F4C2488D2
:103AB00004F2DC54A2B21D4CE48804F2DC54A1B23E
:103AC0001A4CA48804F2DC54A0B2FFF79CFA27E158
:103AD0002EE00000912A00205A0400205B04002000
:103AE000802A00205C0400205D0400205E04002089
:103AF0005F040020600400206104002062040020B4
:103B000063040020A8040020AC040020F805002075
:103B100024000020200000201C000020D8040020E9
:103B2000000000006C05002050310020082B002010
:103B3000FE48007B48B30020FC49087300900190C8
:103B40000290FB4C039094ED030ABCEEC00A10EE09
:103B5000104AA3B2F64C94ED020ABCEEC00A10EE75
:103B6000104AA2B2F24C94ED010ABCEEC00A10EE6B
:103B7000104AA1B2EE4C94ED000ABCEEC00A10EE61
:103B8000104AA0B2FFF7ACF9CAE0E848407B40B168
:103B90000020E64948734FF4E4717B20FFF756F9A3
:103BA000BEE0E248007958B30020E0490871E148DE
:103BB000D0ED1E4AB0EE644AD0ED1F4AF0EE643AF2
:103BC000D0ED1D4AB0EE643AD0ED1A4AF0EE642A08
:103BD000D0ED1B4AB0EE642AD0ED194AF0EE641A1B
:103BE000D0ED164AB0EE641AD0ED174AF0EE640A32
:103BF000D0ED154AB0EE640A0120FFF70EF88FE011
:103C0000CA48407958B30020C8494871CA48D0ED25
:103C10001E4AB0EE644AD0ED1F4AF0EE643AD0ED91
:103C20001D4AB0EE643AD0ED1A4AF0EE642AD0EDA7
:103C30001B4AB0EE642AD0ED194AF0EE641AD0EDBA
:103C4000164AB0EE641AD0ED174AF0EE640AD0EDD1
:103C5000154AB0EE640A0220FEF7DFFF60E0B348C9
:103C6000807958B30020B1498871B448D0ED214A19
:103C7000B0EE644AD0ED224AF0EE643AD0ED204A2C
:103C8000B0EE643AD0ED1D4AF0EE642AD0ED1E4A43
:103C9000B0EE642AD0ED1C4AF0EE641AD0ED194A59
:103CA000B0EE641AD0ED1A4AF0EE640AD0ED184A6C
:103CB000B0EE640A0320FEF7B0FF31E09B48C07904
:103CC000F8B100209949C8719C48D0ED251AB0EE92
:103CD000611AD0ED261AF0EE610AD0ED241AB0EE8A
:103CE000610A1FED714A5FED723A1FED733A5FEDA5
:103CF000742A1FED752A5FED761A0420FEF78DFFFA
:103D00000EE08A48007C02280AD100208749087406
:103D10001FED7D0A00231A4619461846FEF7ECFEF1
:103D200000F04BFF06B010BD70B504460D46AA204A
:103D3000834908704870EF2088700220C8700846D8
:103D4000047145710026002005E07D49095C31447D
:103D5000CEB2411CC8B20628F7DB7948867107212C
:103D6000FEF7C2FE70BD70B52DED048B04460D4606
:103D70000026002004E0215C3144CEB2411CC8B2D0
:103D8000691E8142F7DC601910F8010CB04202D0C4
:103D9000BDEC048B70BD2078AA2802D16078AF28D2
:103DA00000D0F5E7A078012822D12079012802D19E
:103DB000644908701CE02079022803D10120614980
:103DC000487015E02079032804D101205D4908706E
:103DD00048700DE02079042803D101205A49087069
:103DE00006E02079212802DB2079262800DD00BFAB
:103DF000A078022814D12079012806D14B490871F6
:103E000048718871C871087248722079A02802D15F
:103E10000120464908702079A12801D1FCF7ACFCAB
:103E2000A078032836D149480078022802D0022021
:103E300000F067FE2079617941EA002044498880DA
:103E4000A079E17941EA00204149C880207A617A6D
:103E500041EA00203E490880A07AE17A41EA002048
:103E60003B494880207B617B41EA0020384908813A
:103E7000A07BE17B41EA002035494881207C617CC0
:103E800041EA002032498881A07CE17C41EA00209F
:103E90002F49C881A078042810D12079012803D1A6
:103EA00000202C49087009E02079022806D14FF63D
:103EB000706029498880012026490870A07805286B
:103EC0000AD12079012802D101F050FC04E02079C8
:103ED000022801D101F05BFCA07810287DD1217966
:103EE000090209B2627941EA02000FF0FFFA41ECDF
:103EF000190B9FED1A0B53EC102B0FF085FA41ECC8
:103F0000180B0FF047FB0B494865A179090209B26C
:103F1000E27941EA02000FF0E9FA41EC190B9FED5A
:103F20000F0B53EC102B0FF06FFA1BE0802A0020D0
:103F3000F02900201C280020E0280020E8060020AE
:103F4000912A0020503100209905002070040020A3
:103F5000C42A0020A8040020082B0020FCA9F1D2CC
:103F60004D62503F41EC180B0FF014FBFD49C86542
:103F7000217A090209B2627A41EA02000FF0B6FA28
:103F800041EC190B1FED0B0B53EC102B0FF03CFA0F
:103F900041EC180B0FF0FEFAF2498865A17A09028C
:103FA00009B2E27A41EA02000FF0A0FA41EC190BE3
:103FB0001FED160B53EC102B0FF026FA41EC180BEB
:103FC0000FF0E8FAE7494866217B090209B2627BF3
:103FD00041EA02000FF08AFA00E072E041EC190BAE
:103FE0001FED220B53EC102B0FF00EFA41EC180BC7
:103FF0000FF0D0FA0146DB48C166A17B090209B285
:10400000E27B41EA02000FF071FA41EC190B1FED5F
:104010002D0B53EC102B0FF0F7F941EC180B0FF0B0
:10402000B9FA0146CF488166217C090209B2627C57
:1040300041EA02000FF05AFA41EC190B1FED390B5F
:1040400053EC102B0FF0E0F941EC180B0FF0A2FA33
:10405000C4494867A17C090209B2E27C41EA020036
:104060000FF044FA41EC190B1FED440B53EC102BED
:104070000FF0CAF941EC180B0FF08CFA0146B94861
:10408000C167217D090209B2627D41EA02000FF099
:104090002DFA41EC190B1FED4F0B53EC102B0FF0C9
:1040A000B3F941EC180B0FF075FA0146AD48816782
:1040B000A0783146FFF738FEFCF756FB0120AA49ED
:1040C0000880A07811287DD12179090209B262798E
:1040D00041EA02000FF00AFA41EC190B1FED610BE7
:1040E00053EC102B0FF090F941EC180B0FF052FA33
:1040F0009E494865A179090209B2E27941EA0200C4
:104100000FF0F4F941EC190B1FED6C0B53EC102B75
:104110000FF07AF941EC180B0FF03CFA9349C8659F
:10412000217A090209B2627A41EA02000FF0DEF94F
:1041300041EC190B1FED770B53EC102B0FF064F9CA
:1041400041EC180B0FF026FA88498865A17A09021C
:1041500009B2E27A41EA02000FF0C8F941EC190B0A
:104160001FED820B53EC102B0FF04EF941EC180BA6
:104170000FF010FA7D494866217B090209B2627B83
:1041800041EA02000FF0B2F941EC190B1FED8D0B63
:1041900053EC102B0FF038F941EC180B0FF0FAF933
:1041A00001467248C166A17B090209B2E27B41EA7D
:1041B00002000FF09BF941EC190B1FED980B53EC2B
:1041C000102B00E055E00FF01FF941EC180B0FF039
:1041D000E1F9014665488166217C090209B2627CE9
:1041E00041EA02000FF082F941EC190B1FEDA50B1B
:1041F00053EC102B0FF008F941EC180B0FF0CAF933
:104200005A494867A17C090209B2E27C41EA0200EE
:104210000FF06CF941EC190B1FEDB00B53EC102BA8
:104220000FF0F2F841EC180B0FF0B4F901464F48CB
:10423000C167217D090209B2627D41EA02000FF0E7
:1042400055F941EC190B1FEDBB0B53EC102B0FF084
:10425000DBF841EC180B0FF09DF9014643488167EC
:10426000A0783146FFF760FDFCF77EFA01203E4959
:104270000880A078122874D12179090209B26279E4
:1042800041EA02000FF032F941EC190B1FEDCD0BA2
:1042900053EC102B0FF0B8F841EC180B0FF07AF933
:1042A00033490866A179090209B2E27941EA0200BC
:1042B0000FF01CF941EC190B1FEDD80B53EC102B30
:1042C0000FF0A2F841EC180B0FF064F9284988664A
:1042D000217A090209B2627A41EA02000FF006F976
:1042E00041EC190B1FEDE30B53EC102B0FF08CF886
:1042F00041EC180B0FF04EF91D494866A17A0902EE
:1043000009B2E27A41EA02000FF0F0F841EC190B31
:104310001FEDEE0B53EC102B0FF076F841EC180B61
:104320000FF038F912490867217B090209B2627B54
:1043300041EA02000FF0DAF841EC190B1FEDF90B1E
:1043400053EC102B0FF060F841EC180B0FF022F932
:1043500007498867A17B090209B2E27B41EA0200B2
:1043600008E065E01C28002058040020E028002018
:10437000E80600200FF0BAF841EC190B9FED6E0B28
:1043800053EC102B0FF040F841EC180B0FF002F932
:104390006B494867217C090209B2627C41EA02004C
:1043A0000FF0A4F841EC190B9FED630B53EC102BAD
:1043B0000FF02AF841EC180B0FF0ECF86049C1F847
:1043C0008000A17C090209B2E27C41EA02000FF000
:1043D0008DF841EC190B9FED580B53EC102B0FF09F
:1043E00013F841EC180B0FF0D5F85549C1F88800C7
:1043F000217D090209B2627D41EA02000FF076F8E0
:1044000041EC190B9FED4C0B53EC102B0EF0FCFF05
:1044100041EC180B0FF0BEF84949C1F88400A078B0
:104420003146FFF781FCFCF79FF9012045490880E0
:10443000A078132803D1A0783146FFF775FCA07847
:10444000142803D1A0783146FFF76EFCA078152818
:1044500003D1A0783146FFF767FC00BF98E410B5A0
:1044600004463948007838B9AA2C05D101203649CC
:104470000870364804705DE033480078012807D1A1
:10448000AF2C05D10220304908703048447051E00B
:104490002D480078022807D1F12C05DA03202A499B
:1044A00008702A48847045E02748007803280CD11A
:1044B000322C0ADA0420244908702448C4702448A5
:1044C000047000202349087034E01F480078042855
:1044D00019D11F480078002815DD1D480078401EBE
:1044E0001B4908701B4800781A490978491C194A69
:1044F0001170001D15490C5415480078D0B90520DD
:104500001149087016E01048007805280FD10020E6
:104510000D4908700F480078001D0C490C540D48D7
:104520000078401DC1B20948FFF71DFC02E00020E1
:104530000549087010BD0000FCA9F1D24D62503F42
:10454000E80600205804002066040020D42A002039
:1045500064040020650400200246002007E0FE4BB2
:104560001B5632F8133021F81030431CD8B20828FB
:10457000F5DB7047F948D0ED020A9FEDF91AF4EE29
:10458000C10AF1EE10FA51D2D0ED030A9FEDF41AF0
:10459000F4EEC10AF1EE10FA1AD2F248B0F90000B6
:1045A000401CC8B3F0480078B0B3EE48B0F9000042
:1045B00000EE900AF8EEE00A9FEDEC1A41EE000AD8
:1045C000FDEEE00A10EE900A00B2E649088030E005
:1045D000E248D0ED030A9FEDE61AF4EEC10AF1EECF
:1045E00010FA1ADDDF48B0F90000401CA0B1DE4827
:1045F000007888B9DB48B0F9000000EE900AF8EEC8
:10460000E00A9FEDDA1A41EE000AFDEEE00A10EE34
:10461000900A00B2D34908800BE0D248B0F90000FC
:10462000401C30B90020CF49088002E00020CD496D
:104630000880CC48B0F90000B0F57A7F10DD4FF06B
:10464000FF30C8490880C848007830B90120C64901
:1046500008700220C749487002E00020C249087073
:1046600070473FB5F0EE401A0546C3480078012870
:1046700020D1C2492846FFF76FFFC04800880A21B1
:1046800090FBF1F0BD490880084640880A2190FB64
:10469000F1F0BA494880084680880A2190FBF1F081
:1046A000B64988800846C0880A2190FBF1F0B349DA
:1046B000C88007E0B0480078022803D1AF49B0486D
:1046C000FFF74AFF002408E2AC4830F8140040F637
:1046D000C411884205DCA94830F81400B0F5FA7F0F
:1046E00007DA0120A74908550020A74921F814003E
:1046F00012E0A54830F81400401CA34921F814002A
:10470000084630F81400C82806DD4FF4FA6021F896
:10471000140000209B49085597480078012803D0D1
:104720009548007802287BD19648005D0028FAD190
:10473000924830F814002DF81400944830F9140011
:10474000934931F9141088426BDD9248005D0028CE
:1047500078D13DF814008E4931F91410401A00EE5A
:10476000100AB8EEC01A894830F91400884931F9A6
:104770001410401A00EE100AB8EEC00AC1EE000A8A
:104780009FED7A1A9FED840A10EE810ABDEEC00AF1
:1047900010EE100A00B210F5FA7F01DA7F484DE002
:1047A0003DF814007A4931F91410401A00EE100A4D
:1047B000B8EEC01A754830F91400754931F9141073
:1047C000401A00EE100AB8EEC00AC1EE000A9FEDD2
:1047D000671A9FED710A10EE810ABDEEC00A10EE55
:1047E000100A00B2B0F5FA7F02DD4FF4FA7025E04E
:1047F0003DF81400664931F91410401A00EE100A11
:10480000B8EEC01A614830F91400614931F914104A
:10481000401A00EE100AB8EEC00AC1EE000A02E02B
:104820008AE086E00EE09FED511A9FED5B0A10EEE4
:10483000810ABDEEC00A10EE100A00B2584921F8F4
:10484000140079E03DF81400514931F91410401A70
:1048500000EE100AB8EEC01A4C4830F914004C496A
:1048600031F91410401A00EE100AB8EEC00AC1EE79
:10487000000A9FED3E1A9FED480A10EE810ABDEE38
:10488000C00A10EE100A00B210F5FA7F01DA4348B0
:1048900049E03DF814003E4931F91410401A00EE89
:1048A000100AB8EEC01A394830F91400384931F905
:1048B0001410401A00EE100AB8EEC00AC1EE000A49
:1048C0009FED2A1A9FED340A10EE810ABDEEC00A50
:1048D00010EE100A00B2B0F5FA7F02DD4FF4FA7064
:1048E00021E03DF814002A4931F91410401A00EE75
:1048F000100AB8EEC01A254830F91400244931F9DD
:104900001410401A00EE100AB8EEC00AC1EE000AF8
:104910009FED161A9FED200A10EE810ABDEEC00A27
:1049200010EE100A00B2404200B21D4921F81400F6
:1049300002E000200C4908709FED1A0A21EE800A5F
:10494000194880ED000A3DF8140000EE100AB8EE98
:10495000400A02482AE0000068040020382B0020AA
:104960000000C8C3AA040020A804002000007A4464
:104970000000C8435031002070040020A82B002004
:10498000C42A002071040020982B00207C04002001
:104990008C0400209C0400200000FA430CFEFFFF62
:1049A000082B002034337B42A404002000EB840059
:1049B000D0ED000A30EE600AB5EEC00AF1EE10FA52
:1049C0000DDD3DF8140000EE100AB8EE400A504824
:1049D00000EB8400D0ED000A30EE600A0EE03DF8F6
:1049E000140000EE100AB8EE400A494800EB8400BB
:1049F000D0ED000A30EE600AB1EE400ADFED450A64
:104A0000B4EEE00AF1EE10FA1DD2434830F914007A
:104A100000EE100AB8EEC00A3D4800EB8400D0ED6D
:104A2000000A70EE600A3A4800EB840090ED000A3C
:104A30003A4890ED001A01EE200A354800EB840058
:104A400080ED000A20E0344830F9140000EE100A2E
:104A5000B8EEC00A2E4800EB8400D0ED000A70EEDC
:104A6000600A2B4800EB840090ED000A2B4890ED83
:104A7000001AB6EE002A21EE021A01EE200A24489E
:104A800000EB840080ED000A214800EB840090EDEB
:104A9000000A234800EB8400D0ED000A30EE600AE3
:104AA000204800EB840080ED000A194800EB8400E8
:104AB00090ED000A1A4800EB840080ED000A1648C9
:104AC00030F9140000EE100AB8EEC00A164800EBE8
:104AD000840080ED000A601CC4B2082CFFF6F4AD1F
:104AE000B0EE610AFFF746FD10480088401C80B216
:104AF0000E490880C82803DD002008800C49087092
:104B00003FBD0B4908700021084A1180704770476B
:104B1000382B00200000C842082B0020A4040020ED
:104B2000582B0020782B0020182B00207A0400201E
:104B3000700400200BF0E4BD704700207047002097
:104B40007047002070470020704700207047002009
:104B500070470020704700207047002070470020F9
:104B600070470020704700207047002070470020E9
:104B700070470BF0ECBD7047002070470020704775
:104B80000BF030BC7047000010B50AF02FFE01207A
:104B90000AF037FE10BD70B5024600200AE0145C32
:104BA000864B1D781B785B1C844E3370844B5C55A0
:104BB000431CD8B28842F2DB70BD10B57F48007844
:104BC0008049097888425BDD7C4800787D49097816
:104BD000401A3F281BDB00207B4908703F207B499F
:104BE000087000200BE077490A780978491C754B5A
:104BF000197073498A5C754B411C5A54C8B23F28DE
:104C0000F1DB4022714900200BF087FE9FE06E48E7
:104C10000078401C6C490870084600786C49097897
:104C20008842F3D1002068490870644800786549DB
:104C30000978401A65490870002015E05F49097835
:104C4000604A1278891A814208DD5E490978014478
:104C50005B4A525C5D4B411C5A5403E000225B4BA3
:104C6000411C5A54411CC8B23F28E7DB5348007826
:104C7000544908704022554900200BF04EFE66E072
:104C80004E4800784F490978884260DA4D480078EC
:104C9000C0F580704949097808443F281BDB002093
:104CA000494908703F204949087000200BE04549F8
:104CB0000A780978491C434B197041498A5C434B77
:104CC000411C5A54C8B23F28F1DB40223F49002022
:104CD0000BF023FE3BE03C480078401C3A4908704A
:104CE000084600783A490978884230D10020364990
:104CF0000870344800784042304909780844334904
:104D00000870002018E02F490978C1F580712B4AFE
:104D100012781144814209DD2A4909780144C9B257
:104D2000274A525C294B411C5A5403E00022274B6E
:104D3000411C5A54411CC8B23F28E4DB1F4800788C
:104D4000204908704022214900200BF0E6FD10BDEB
:104D500010B50446012C02D0032C11D10EE059B934
:104D600023B1012B05D0022B04D100E000BF40206D
:104D700010BD00BF00BF00BF00BF01E00120F7E78A
:104D800000BF0020F4E72DE9F047064688461446A8
:104D90009946089F022E02D0032E0CD10AE001256D
:104DA00004E0605DFFF75BFB681CC5B22078A84299
:104DB000F7DA00E000BF00BFBDE8F087B9040020CB
:104DC000D82E0020B8040020BA040020D82F0020DC
:104DD000B704002010B505480EF068FA022101EB77
:104DE0004000C0B210BD0248704700001C300020D7
:104DF0003530002030B50446084615886D1CADB22C
:104E00001580854204DD002515800125558007E0C9
:104E10001588854201D1002501E015886D1C55805B
:104E2000158804EB850585ED000A558804EB85059A
:104E3000D5ED000A30EE601A00EE900AF8EE601A26
:104E4000C1EE210A93ED001A70EE810AC3ED000A4B
:104E500030BD70B58BB0F0EE400A022801DA0B29A4
:104E600003DB9FED7B0A0BB070BD7A4C245C641CA5
:104E7000E4B2784D2C548C4201DB00242C5400EB1E
:104E8000400404EBC004744D05EB8404714D2D5CAB
:104E900004EB8504C4ED000A002211E000EB40049D
:104EA00004EBC0046C4D05EB840404EB820494ED28
:104EB000000A6C4604EB820484ED000A541CE2B242
:104EC0008A42EBDB00222DE0002325E06C4604EB58
:104ED000830494ED000A6D465C1C05EB8404D4ED5C
:104EE000001AB4EEE10AF1EE10FA13DD6C4604EBA1
:104EF000830494ED001A5C1C05EB840494ED000A15
:104F00006C4604EB830484ED000A5C1C05EB84040E
:104F100084ED001A5C1CE3B24C1EA41A9C42D5DC42
:104F2000541CE2B24C1E9442CEDC0C4601EBD4750C
:104F30006D106E4606EB850595ED000A93E770B59A
:104F40002DED028B04460D461646D4ED020AB0EE56
:104F5000600AFDF7DDFBF0EE408AD4ED010AB0EE09
:104F6000600AFDF7D5FB38EE800AB0EE408AFDF707
:104F7000D4FB3A4880ED000AD4ED020AB0EE600A94
:104F8000FDF7C6FBF0EE408AD4ED000AB0EE600AF1
:104F9000FDF7BEFB38EE800AB0EE408AFDF7BDFBA0
:104FA0002F4880ED000A94ED020AB5EEC00AF1EE3A
:104FB00010FA02D24FF0FF3000E0012029490870BA
:104FC00095ED000A2548D0ED000A20EE200A94ED68
:104FD000001A084690F9000000EE900AF8EEE00A88
:104FE00061EE200A95ED021A00EEC10A86ED000A74
:104FF000084690F9000000EE100AB8EEC00A184802
:10500000D0ED000A20EE200AD5ED010A20EE200A9C
:10501000D4ED010A95ED021A00EEC10A86ED010AEF
:1050200094ED000AD5ED000A20EE200AD4ED010A25
:1050300095ED011A00EE810AD4ED020A95ED021AEF
:1050400000EE810A86ED020ABDEC028B70BD000005
:1050500000000000C40400206C300020C8040020C0
:10506000CC040020C6040020B0EE601AFE48D0ED4B
:10507000020ADFEDFE1A70EEA10ADFEDFD1A60EE06
:10508000A10ADFEDFB1A80EEA12AFA4880ED002A82
:10509000F948D0ED001AF74890ED002AF74800884B
:1050A00000EE900AF8EE600A72EE600A61EEA00A65
:1050B000F348C0ED000AF048D0ED020AF048D0ED08
:1050C000001A60EEA11AD0ED030A41EE800AC0ED8D
:1050D000030AD0ED030AEB48D0ED001AF1EE611A95
:1050E0009FEDE92A61EE821AF4EEE10AF1EE10FA80
:1050F00008D2D0ED000AF1EE600ADFEDE31A60EEAF
:10510000A10A18E0DE48D0ED030ADE48D0ED001A0F
:105110009FEDDD2A61EE821AF4EEE10AF1EE10FA5B
:1051200006DDD0ED000ADFEDD81A60EEA10A02E03C
:10513000D348D0ED030AD248C0ED030AD0ED000AEF
:10514000D0ED011A70EEE10ADFEDD01A60EEA10A8F
:10515000CF48D0ED001AF1EE611A61EE801A9FED92
:10516000CD2A42EE210AC448D0ED011A60EEA10A10
:10517000C348C0ED020AD0ED000AD0ED031A70EE6C
:10518000A10AD0ED021A70EEA10AC0ED040AD0ED1A
:10519000040ADFEDC11AF4EEE10AF1EE10FA02D2D0
:1051A000DFEDBD0A0FE0B648D0ED040ADFEDAF1A1F
:1051B000F4EEE10AF1EE10FA02DDDFEDAC0A02E0F6
:1051C000AF48D0ED040AAE48C0ED040AD0ED040AA1
:1051D000DFEDA61A70EEA10AB048C0ED000AA8489B
:1051E000D0ED000AC0ED010A704700B5B0EE403ABC
:1051F000F0EE602AAA48007810B1012839D11AE0EF
:10520000A84890ED060ADFEDA80AB4EEE00AF1EE38
:1052100010FA03DD0120A24908700BE0A3480088C2
:10522000401C80B2A1490880B0F5FA7F02DD012060
:105230009B4908701EE09E48007802280BD19D48CB
:10524000007840B9F0EE620A9FED9B0AFFF70CFF71
:10525000FF20984908709648007830B18F4890ED4B
:10526000000A964880ED000A02E09448C0ED002A4A
:1052700000E000BF00BF00BD914890ED180AF7EEB6
:10528000000A20EE200A8F4880ED000A8C4890ED3D
:10529000190AF7EE000A20EE200A8A4880ED010A7A
:1052A000874890ED1A0AF7EE000A20EE200A85489A
:1052B00080ED020A704710B52DED068BB0EE408AE6
:1052C000B0EE609AF0EE418AF0EE619AB0EE000A1C
:1052D00029EE000AB5EEC00AF1EE10FA02D29FEDF7
:1052E0007A0A11E0B0EE000A29EE000ADFED770A33
:1052F000B4EEE00AF1EE10FA02DD9FED740A03E06D
:10530000B0EE000A29EE000AB0EE40AA9FED700A46
:1053100068EE000AB7EE001A81EE200AF7EE000AE6
:1053200030EE200AB7EE001AC1EE000A694890ED8F
:10533000000A3AEE401A90ED000A00EE810A80ED74
:10534000000A654890ED000A9FED641AC0EE010A5C
:10535000634890ED000A9FED631A00EE810A6248EF
:1053600080ED000ADFED610A90ED000AFDF70DFB0C
:105370005F48D0ED000A40EE080AC0ED000A44483C
:1053800090ED000A5B48D0ED000A30EE600AC0EEF6
:10539000080A554890ED000A70EEC00A9FED3B0ADE
:1053A00028EE001A4E4890ED000A01EE200A80ED2A
:1053B000000A90ED000ADFED380AB4EEE00AF1EEE3
:1053C00010FA02D29FED340A0FE0454890ED000A32
:1053D000DFED260AB4EEE00AF1EE10FA02DD9FEDF1
:1053E000230A02E03E4890ED000A3D4880ED000AA5
:1053F0009FED410A28EE000AF7EE000A80EE801ABF
:10540000B7EE000A31EE000AB7EE001AC1EE000A4C
:10541000374890ED000A39EEC01A90ED000A00EE10
:10542000810A80ED000A90ED000A344880ED000A00
:1054300090ED000AB5EEC00AF1EE10FA02DD90ED33
:10544000000A04E02D4890ED000AB1EE400ADFEDBD
:105450002C0AB4EEE00AF1EE10FA04D29FED1A0A1B
:10546000264880ED000A4DE0382B00200000FA436A
:1054700000007A44E8040020F8300020F8050020FD
:10548000E43000201000002000009643CDCCCC3E3C
:10549000D80400209A99193F0000FAC3F4040020B0
:1054A000FC0400205031002000007A45FE0400205A
:1054B000AC040020F4050020CDCCCC3DD00400206D
:1054C000E8060020D830002000000000000016444C
:1054D000C3F5C83F04050020D40400200000804527
:1054E0000805002000401C46E00400200000C842DF
:1054F0000C050020DC0400209CC4A03E1005002008
:10550000000048428B4890ED000A8B4880ED000A6D
:1055100090ED000A894880ED000A894890ED000A64
:105520008548D0ED000A78EEE00A20EE200A854892
:1055300080ED000ADFED840A80EE880AF2EE040AAC
:1055400020EE200A7E48D0ED010A20EE200A7F4896
:10555000D0ED000AF1EE600A20EE200A20EE080AE3
:10556000784880ED020A764890ED020AD0ED000AF4
:1055700020EE200A78EEE90A60EE200A714890EDEC
:10558000030A00EE880A80ED030A90ED030A7048D2
:10559000D0ED000AF1EE600A1FED451A60EE810AB7
:1055A000B4EEE00AF1EE10FA08D290ED000AB1EE86
:1055B000400A5FED4B0A20EE200A18E0614890EDAA
:1055C000030A6348D0ED000A1FED511A60EE810A0C
:1055D000B4EEE00AF1EE10FA06DD90ED000A5FEDA0
:1055E000560A20EE200A02E0564890ED030A55487C
:1055F00080ED030A90ED000A5148D0ED000A00EE5C
:10560000A80A5048D0ED020A30EE200AD0ED030A75
:1056100030EE200ADFED4F0AB4EEE00AF1EE10FAA8
:1056200002D29FED4C0A2BE0464890ED000A444818
:10563000D0ED000A00EEA80A4248D0ED020A30EE92
:10564000200AD0ED030A30EE200A5FED710AB4EEB5
:10565000E00AF1EE10FA02DD1FED750A10E039489C
:1056600090ED000A3648D0ED000A00EEA80A354851
:10567000D0ED020A30EE200AD0ED030A30EE200A07
:105680003548D0ED000A324890ED001A41EE000A8C
:105690002C48C0ED040A90ED000A80ED010ABDEC33
:1056A000068B10BD10B52DED048B2C4890ED1C0A17
:1056B00010EE101A08460DF02AFF41EC190B9FED71
:1056C000280B53EC102B0DF09FFE41EC180B0DF046
:1056D00061FF25490860214890ED1D0A10EE101A5F
:1056E00008460DF014FF41EC190B9FED1D0B53EC18
:1056F000102B0DF089FE41EC180B0DF04BFF1A49F1
:105700004860164890ED1E0A10EE101A08460DF07B
:10571000FEFE41EC190B9FED120B53EC102B0DF01C
:1057200073FE41EC180B0DF035FF0F498860BDEC9E
:10573000048B10BD10050020D8040020DC040020DC
:10574000D8300020C43000206F12033BE00400205A
:1057500010000020000096C304050020E806002089
:10576000000000000000F03FF830002010B540F2CB
:105770004C4408E00120FFF7C4F905498C800A2059
:1057800000F0A4F8641CB4F5AF6FF3DD10BD7047F2
:10579000403100200EB50121084604F02DFE4FF0E7
:1057A000804005F065FE4FF47A7001905320ADF80B
:1057B00000000020ADF80800ADF8020069464FF087
:1057C000804005F031FF0121880708F013FA01221B
:1057D0001146900708F004F90121880706F0BEFA87
:1057E0000021012004F008FE0EBD08B51C208DF834
:1057F000000002208DF8010000208DF80200012039
:105800008DF80300684603F036FC08BD10B5FFF7BD
:10581000C1FFFFF7EAFF0121084604F0EDFD10BDCE
:105820007FB5684604F00EFC4FF47A710198B0FB26
:10583000F1F4E4082146B1F1807F00D31DE021F0AE
:105840007F40401E4FF0E022506150170F22002889
:1058500007DA13071E0E664B00F00F052D1F5E556D
:1058600003E013071D0E634B1D5400BF00204FF0D3
:10587000E02290610720106100BF6FF0040003F088
:1058800091FC7FBD5C4A11684FF0E02252694FF0F5
:10589000E0239B69D21A4FF47A735A434FF0E02306
:1058A0005B69B2FBF3F201EB4103C3EBC11302EB03
:1058B000C300704730B50446FFF7E4FF054600BF5C
:1058C000FFF7E0FF401BA042FAD330BD10B50446FD
:1058D00003E04FF47A70FFF7EDFF2000A4F101041C
:1058E000F7D110BD10B54548007800B910BD444847
:1058F000006840F2E731884207DA41480068401CFE
:105900003F490860FAF77AFC29E000203C4908602A
:105910003C4800683B2805DA3A480068401C394991
:1059200008601CE0002037490860374800683B28C1
:1059300005DA35480068401C334908600FE0002054
:105940003149086031480068172805DA2F48006897
:10595000401C2E49086002E000202C49086000BF6E
:10596000C4E710B5044604EB4400294901EB80006C
:1059700090ED000A04EB440001EB800080ED010A89
:10598000FFF780FF00EE100AB8EE400ADFED210AB3
:1059900080EE201A04EB44001D4901EB800080EDED
:1059A000001A04EB440001EB800090ED000A04EBC8
:1059B000440001EB8000D0ED010A30EE600A04EBF8
:1059C000440001EB800080ED020A04EB440001EB8F
:1059D000800090ED020A10BD10B5002404E02046BE
:1059E000FFF7BFFF601CC4B2052CF8DB10BD000040
:1059F00018ED00E000E400E01405002000000020A5
:105A000024050020200500201C050020180500208A
:105A1000043100200024744900B587B0012106201C
:105A200004F0EAFC01210E2004F01CFC1D208DF87E
:105A3000040001208DF805008DF806008DF80700A0
:105A400001A803F018FB1E208DF8040001208DF83A
:105A500005008DF806008DF8070001A803F00BFB88
:105A6000C020059002208DF8180003208DF8190041
:105A700000208DF81A0002208DF81B0005A9FB48B4
:105A800003F062FC0320059002208DF8180003202B
:105A90008DF8190000208DF81A0002208DF81B00E7
:105AA00005A9F34803F050FC02220621EF4803F059
:105AB00088FF02220721ED4803F083FF0222002124
:105AC000EB4803F07EFF02220121E94803F079FF51
:105AD0005320E84908800020ADF808000A20ADF8FE
